:100000000C9462000C948A000C948A000C948A0070
:100010000C948A000C948A000C948A000C948A0038
:100020000C948A000C948A000C948A000C948A0028
:100030000C948A000C948A000C948A000C948A0018
:100040000C940A070C948A000C948A000C948A0081
:100050000C948A000C948A000C948A000C948A00F8
:100060000C948A000C948A000000000024002700F1
:100070002A0000000000250028002B0000000000DE
:1000800023002600290004040404040404040202DA
:100090000202020203030303030301020408102007
:1000A0004080010204081020010204081020000012
:1000B0000008000201000003040700000000000027
:1000C0000000540711241FBECFEFD8E0DEBFCDBF24
:1000D00011E0A0E0B1E0ECEAF3E202C005900D927D
:1000E000AE3CB107D9F722E0AEECB1E001C01D9201
:1000F000AA34B207E1F710E0C2E6D0E004C02197CD
:10010000FE010E94B111C136D107C9F70E94A607AE
:100110000C94D4110C940000833081F028F48130C9
:1001200099F08230A9F008958730A9F08830C9F09D
:100130008430B1F4809180008F7D03C08091800075
:100140008F7780938000089584B58F7784BD08955C
:1001500084B58F7DFBCF8091B0008F778093B00006
:1001600008958091B0008F7DF9CFCF93DF93282F32
:1001700030E0F901E255FF4F8491F901E656FF4F57
:10018000D491F901EA57FF4FC491CC23A1F081111A
:100190000E948C00EC2FF0E0EE0FFF1FE458FF4FA1
:1001A000A591B491EC91ED2381E090E009F480E019
:1001B000DF91CF91089580E090E0FACF1F93CF9325
:1001C000DF93282F30E0F901E255FF4F8491F901C8
:1001D000E656FF4FD491F901EA57FF4FC491CC2363
:1001E000A9F0162F81110E948C00EC2FF0E0EE0F89
:1001F000FF1FEE58FF4FA591B4918FB7F894EC9183
:10020000111108C0D095DE23DC938FBFDF91CF9111
:100210001F910895DE2BF8CFCF93DF9390E0FC0180
:10022000E656FF4F24918A579F4FFC018491882303
:10023000C9F090E0880F991FFC01E859FF4FA59184
:10024000B491FC01EE58FF4FC591D49161110DC0DE
:100250009FB7F8948C91209582238C9388812823D2
:1002600028839FBFDF91CF910895623051F49FB7EB
:10027000F8943C91822F809583238C93E8812E2BD8
:10028000EFCF8FB7F894EC912E2B2C938FBFEACF42
:100290001F93CF93DF93182FEB0161E00E940C01B5
:1002A000209739F460E0812FDF91CF911F910C945A
:1002B000DE00CF3FD10511F461E0F5CFE12FF0E092
:1002C000E255FF4FE491E33031F140F4E130B1F019
:1002D000E230E1F0C038D1057CF7E4CFE73029F116
:1002E000E83059F1E430B1F780918000806280936A
:1002F0008000D0938B00C0938A0004C084B58068CE
:1003000084BDC7BDDF91CF911F91089584B58062F0
:1003100084BDC8BDF7CF8091800080688093800045
:10032000D0938900C0938800EDCF8091B0008068A1
:100330008093B000C093B300E5CF8091B00080629D
:100340008093B000C093B400DDCF3FB7F8948091A4
:10035000F6019091F701A091F801B091F90126B54D
:10036000A89B05C02F3F19F00196A11DB11D3FBFED
:10037000BA2FA92F982F8827BC01CD01620F711DBC
:10038000811D911D42E0660F771F881F991F4A95B6
:10039000D1F708952FB7F8946091F2017091F301AD
:1003A0008091F4019091F5012FBF0895AF92BF9213
:1003B000CF92DF92EF92FF920F931F93CF93DF9331
:1003C0006C017B018B01040F151FEB015E01AE1860
:1003D000BF08C017D10759F06991D601ED91FC9182
:1003E0000190F081E02DC6010995892B79F7C501AF
:1003F000DF91CF911F910F91FF90EF90DF90CF9001
:10040000BF90AF900895FC01808580FD04C082FB01
:10041000882780F9089580E00895862F642F0C9432
:100420000C01FC0181850E94B50021E0892B09F4B3
:1004300020E0822F0895CF93DF93EC01698718861F
:100440000E941102882319F08885836088870E94A2
:10045000CA016A837B838C839D83DF91CF9108954A
:10046000CF92DF92EF92FF921F93CF93DF93EC0135
:1004700088858B7F8887CE010E941102182F88857E
:10048000869581701817B1F00E94CA016A837B8338
:100490008C839D83888592E089278887888582FB65
:1004A000882780F9DF91CF911F91FF90EF90DF9027
:1004B000CF9008950E94CA01CA80DB80EC80FD8045
:1004C000AB01BC014C195D096E097F098E819F81CA
:1004D000B0E0A0E0481759076A077B07F8F2888563
:1004E00081701817D9F20E94CA016A837B838C83BA
:1004F0009D83888591E08927846088870E94CA014E
:100500006A877B878C879D87C9CF089590E080E0BC
:100510000895AF92BF92CF92DF92EF92FF920F9326
:100520001F93CF93DF93809108019091090181304F
:10053000910509F04DC00E94CA01DC019B01AD018B
:1005400060E070E080E090E0A090D201B090D30134
:10055000C090D401D090D501E090D601F090D701A1
:100560000091D8011091D9010E94B711273C3105A3
:1005700041055105610571058105910569F160F13C
:100580000E94CA01DC01CB016093D2019093D30198
:10059000A093D401B093D5011092D6011092D70147
:1005A0001092D8011092D9018FE00E94B50061E04D
:1005B000892B09F060E08FE0DF91CF911F910F91BF
:1005C000FF90EF90DF90CF90BF90AF900C94DE0043
:1005D000892B11F461E0EFCFDF91CF911F910F9143
:1005E000FF90EF90DF90CF90BF90AF9008958091F3
:1005F000080190910901019709F060C02091ED0177
:100600003091EE018091E9019091EA0121153105C7
:10061000D1F4009709F050C08091E201882309F4D9
:100620004DC01092E8011092E7011092E60110927D
:10063000E50170E060E085E00E94480170E060E064
:1006400086E00C944801019799F48091E201882397
:10065000A9F181E090E09093E8018093E701109286
:10066000E6011092E5016091E3017091E401E3CFAE
:100670002130310519F58091E2018823F9F01092BB
:10068000E8011092E7013093E6012093E501209103
:10069000EB013091EC014FEF429FC001439F900D61
:1006A000112464E670E00E949D1186E00E944801DA
:1006B00070E060E085E0C5CF019739F208954F9270
:1006C0005F926F927F928F929F92AF92BF92CF92E2
:1006D000DF92EF92FF92C090DE01D090DF01E090B8
:1006E000E001F090E1018090DA019090DB01A090B0
:1006F000DC01B090DD01A5019401C701B6010E94A3
:100700005A0F2B013C0120910001309101014091D1
:100710000201509103010E942B110E943E10663984
:1007200071050CF055C07093D1016093D0012091F8
:100730000401309105014091060150910701C30168
:10074000B2010E942B110E943E107093CF01609362
:10075000CE016F3F71050CF442C08FEF90E0909393
:10076000D1018093D001A5019401C701B6010E9477
:10077000261118160CF03EC08091080190910901D5
:100780008130910509F065C02091E201211159C025
:100790009093E8018093E7011092E6011092E50141
:1007A0006091D0017091D10185E00E94480170E014
:1007B00060E086E0FF90EF90DF90CF90BF90AF9029
:1007C0009F908F907F906F905F904F900C94480116
:1007D00086E990E09093D1018093D001A8CF69334E
:1007E00071050CF0C0CF88E390E09093CF01809327
:1007F000CE01B9CFA5019401C701B6010E94C70F70
:1008000087FF27C08091080190910901019709F5A0
:100810008091E20181111DC01092E8011092E70160
:1008200081E090E09093E6018093E5016091CE0134
:100830007091CF0186E00E94480170E060E085E0A1
:10084000B9CFA5019401C701B6010E94C70F87FD6A
:10085000DFCFFF90EF90DF90CF90BF90AF909F9051
:100860008F907F906F905F904F90089582E192E01B
:100870000C94030280E292E00C9403028CE392E079
:100880000C9403028EE292E00C9403028CE392E05B
:100890000E9430028EE292E00E94300280E292E0FA
:1008A0000E94300282E192E00C943002FC0101903F
:1008B0000020E9F73197AF01481B590BBC018AEFC3
:1008C00091E00C94D6018F929F92AF92BF920F93BA
:1008D0001F93CF93DF93CDB7DEB7A1970FB6F894F0
:1008E000DEBF0FBECDBF19A2423008F44AE08E0130
:1008F0000F5D1F4F842E912CB12CA12CA5019401CA
:100900000E94380FE62FB901CA01EA30F4F4E05D25
:10091000D801EE938D01232B242B252B79F790E022
:1009200080E0109719F0CD010E945604A1960FB6F1
:10093000F894DEBF0FBECDBFDF91CF911F910F9115
:10094000BF90AF909F908F900895E95CE1CF0C9499
:100950005604CF93DF93EC0160E08E810E94DE00AD
:1009600061E08E810E94DE0060E08E810E94DE00E8
:100970008BE891E00197F1F7DF91CF910895CF9245
:10098000DF92EF92FF920F931F93CF93DF936C014F
:100990007C0187E0E80EF11CD0E0C0E0062F10E0FB
:1009A000B8010C2E02C0759567950A94E2F7617044
:1009B000F70181917F010E94DE002196C430D105AC
:1009C00079F7C601DF91CF911F910F91FF90EF90C2
:1009D000DF90CF900C94A904CF92DF92EF92FF9218
:1009E0000F931F93CF93DF93EC01F62E642F8C812E
:1009F0000E94DE008D818F3F19F060E00E94DE00D2
:100A00000F2D10E08F8584FF25C06E0187E0C80E92
:100A1000D11CF12CE12CB8010E2C02C07595679504
:100A20000A94E2F76170F60181916F010E94DE0085
:100A3000FFEFEF1AFF0A88E0E816F10461F7CE0134
:100A4000DF91CF911F910F91FF90EF90DF90CF90AA
:100A50000C94A904B80184E0759567958A95E1F72F
:100A6000CE010E94BF046F2DCE01DF91CF911F9167
:100A70000F91FF90EF90DF90CF900C94BF0440E077
:100A8000682F8AEF91E00C94EC0481E00E943F050E
:100A90008BE39FE10197F1F70895CF93DF938230C5
:100AA00029F49091090298609093090280930D02B5
:100AB00010920E0280E480930F0280E18093100276
:100AC00080E58093110261E08091FE010E940C019B
:100AD0008091FF018F3F19F061E00E940C0161E0FD
:100AE000809100020E940C01CAEFD1E09E012A5FB2
:100AF00031408091090284FD0BC084E090E0219692
:100B00002817390744F461E08E810E940C01EECF72
:100B100088E090E0F4CF8BE39DE00197F1F760E08F
:100B20008091FE010E94DE0060E0809100020E9440
:100B3000DE008091FF018F3F19F060E00E94DE002F
:100B40008091090284FD34C063E08AEF91E00E9445
:100B5000BF04CBE4D6E4CE010197F1F763E08AEF5E
:100B600091E00E94BF042197F1F763E08AEF91E0E2
:100B70000E94BF0483E592E00197F1F762E08AEFFB
:100B800091E00E94BF048091090280620E943F05AB
:100B900084E080930A028CE00E943F050E94450594
:100BA00082E080930B0286E0DF91CF910C943F05A9
:100BB00080620E943F058BE496E40197F1F78091F3
:100BC000090280620E943F0583E592E00197F1F7F8
:100BD0008091090280620E943F05D5CF90910D025D
:100BE000691710F06FEF690FE62FF0E0E650FE4F47
:100BF0009489890F80680C943F0541E00E94EC04C1
:100C000081E090E008954F925F926F927F928F9271
:100C10009F92AF92BF92CF92DF92EF92FF920F938B
:100C20001F93CF936B017C01742EAC019B010E943A
:100C30009811882399F08EE191E0CF911F910F9147
:100C4000FF90EF90DF90CF90BF90AF909F908F90EC
:100C50007F906F905F904F900C945604460157011F
:100C6000E894B7F82FEF3FEF4FE75FE7C501B40116
:100C70000E94981181110DC02FEF3FEF4FE75FE702
:100C8000C501B4010E94C70F18161CF482E291E05E
:100C9000D4CF2FEF3FEF4FE75FE4C701B6010E94CB
:100CA000261118161CF486E291E0C7CF2FEF3FEF14
:100CB0004FE75FECC701B6010E94C70F87FDF3CF76
:100CC00020E030E0A901C701B6010E94C70F10E083
:100CD00000E087FF0CC041E06DE28AEF91E00E94E6
:100CE000EC04F7FAF094F7F8F09401E010E0C0E0BB
:100CF00060E070E080E09FE37C1641F020E030E0AF
:100D000040E251E40E94CC0FCF5FF6CFA7019601DD
:100D10000E945B0F4B015C010E9445102B013C01BE
:100D20004AE00E946304080F191FCC23C9F1C301D4
:100D3000B2010E9474109B01AC01C501B4010E9474
:100D40005A0F4B015C0141E06EE28AEF91E00E9494
:100D5000EC040F5F1F4FC15018F120E030E040E27B
:100D600051E4C501B4010E942B112B013C010E94EA
:100D700045104B01B12CA12C4AE0C501B4010E94E1
:100D80006304080F191FC501B4010E9474109B0170
:100D9000AC01C301B2010E945A0F4B015C01DBCFD1
:100DA000C801CF911F910F91FF90EF90DF90CF90EE
:100DB000BF90AF909F908F907F906F905F904F907B
:100DC0000895CF92DF92EF92FF926C01990FEE0897
:100DD000FF08F7FE16C041E06DE28AEF91E00E9445
:100DE000EC0466277727CB016C197D098E099F09D2
:100DF0004AE00E9463040196FF90EF90DF90CF904D
:100E000008954AE0C701B601FF90EF90DF90CF90C0
:100E10000C9463041F920F920FB60F9211242F931C
:100E20003F938F939F93AF93BF938091F2019091E3
:100E3000F301A091F401B091F5013091F10123E0AB
:100E4000230F2D3758F50196A11DB11D2093F101F7
:100E50008093F2019093F301A093F401B093F50114
:100E60008091F6019091F701A091F801B091F901FC
:100E70000196A11DB11D8093F6019093F701A093F7
:100E8000F801B093F901BF91AF919F918F913F917C
:100E90002F910F900FBE0F901F90189526E8230FEB
:100EA0000296A11DB11DD2CFEAEFF1E013821282AA
:100EB0008EE091E0918380838CE084838FEF858343
:100EC0008BE0868384E0878383E0808782E081876C
:100ED00081E08287138614861586168617860E94FF
:100EE0004D05ECE3F2E02AE131E031832083128208
:100EF0001382148215828AE090E09783868310869D
:100F00001186EEE2F2E03183208312821382148292
:100F100015829783868310861186E0E2F2E03183A2
:100F2000208312821382148215829783868310860F
:100F30001186E2E1F2E0318320831282138214826F
:100F4000158297838683108611860895789484B5D8
:100F5000826084BD84B5816084BD85B5826085BDB5
:100F600085B5816085BD80916E00816080936E0043
:100F70001092810080918100826080938100809135
:100F800081008160809381008091800081608093E6
:100F900080008091B10084608093B1008091B000A6
:100FA00081608093B00080917A00846080937A00A1
:100FB00080917A00826080937A0080917A008160CB
:100FC00080937A0080917A00806880937A001092F2
:100FD000C10061E08FE00E940C0160E088E00E94A7
:100FE0000C0160E089E00E940C0160E08AE00E9450
:100FF0000C0160E08DE00E940C016DE070E08CE37C
:1010000092E00E941B02C9E1D0E0D0934302C0935A
:10101000420268E070E08EE292E00E941B02D093F0
:101020003502C093340269E070E080E292E00E94F1
:101030001B02D0932702C09326026AE070E082E18F
:1010400092E00E941B02D0931902C093180280E024
:1010500090E0A8EBB1E48093DE019093DF01A093D0
:10106000E001B093E10161E085E00E940C0161E0E4
:1010700086E00E940C0161E087E00E940C0170E0B4
:1010800060E085E00E94480170E060E086E00E9438
:1010900048016091080187E00E94DE0082E00E9422
:1010A0004D0588248394912CAA24A394B12CC1E0EB
:1010B000D0E007E010E0E091EF01F091F001E830BE
:1010C000F10508F0CDC6E959F74F0C94B1116F083E
:1010D000B909510AF00A8F0B2A0C700DB70E0E9445
:1010E000450570E4372E8091EF019091F001892B36
:1010F00009F0B6C60E9489020E94460460E080E0C2
:101100000E94EE058AE291E00E94A7040E94A501D8
:101110002B013C0164E6C62ED12CE12CF12C0E945F
:10112000A5016419750986099709683E7340810510
:101130009105A8F321E0C21AD108E108F10888EE70
:10114000480E83E0581E611C711CC114D104E104D7
:10115000F10429F76091DE017091DF018091E001D7
:101160009091E10141E00E94030654E6E52EF12C46
:10117000412C512C320130927C0080917A008064A5
:1011800080937A0080917A0086FDFCCF8091780070
:1011900060917900762F682F072E000C880B990B31
:1011A0000E94761020E030E040EA50E40E942B11CB
:1011B00020E030EC4FE754E40E94CC0F2AE037EDFA
:1011C00043E25CE30E94CC0F9B01AC01C301B2017E
:1011D0000E945B0F2B013C0181E0E81AF10859F6EF
:1011E00020E030E048EC52E4C301B2010E94CC0F91
:1011F0006093DA017093DB018093DC019093DD0151
:1012000061E080E00E94EE058FE291E00E94A70479
:101210006091DA017091DB018091DC019091DD0138
:1012200041E00E940306E0900801F09009016E2D54
:1012300087E00E94DE008091E201882309F44CC01F
:101240000E94F702E114F10409F049C060E08AE06D
:101250000E94EE0584E391E00E94A70461E08CE027
:101260000E94EE058BE391E00E94A70480910801A3
:10127000909109018130910569F42091E701309145
:10128000E8012130310531F42091E5013091E6018A
:10129000232B41F02091E9013091EA012130310501
:1012A00009F04BC060E08CE00E94EE0583E491E021
:1012B0000E94A70461E08CE00E94EE058FE391E0BC
:1012C0000E94A7040E944204882309F40CCF909244
:1012D000F0018092EF0107CF0E945F03B3CFEA9441
:1012E000EF2821F68091E7019091E801892B09F020
:1012F000BDCF8091E5019091E601892B09F0B6CF31
:101300008091ED019091EE01892B09F0AFCF809192
:10131000E9019091EA01892B09F0A8CF60E08AE009
:101320000E94EE0584E391E00E94A70461E08CE056
:101330000E94EE058FE391E097CF019761F48091D1
:10134000E5019091E601019731F48091E7019091D8
:10135000E801892B39F08091ED019091EE01019720
:1013600009F0B0CF60E08CE00E94EE0588E491E0E7
:101370009FCF0E94450542E0E42EF12C8091EF01C1
:101380009091F001019709F06BC50E9489020E94BB
:10139000460460E080E00E94EE058DE491E00E944A
:1013A000A70461E080E00E94EE058AE291E00E94DD
:1013B000A7046091DE017091DF018091E0019091BE
:1013C000E10141E00E9403060E943E04882309F4E3
:1013D0005EC061E088E00E94EE058BE591E00E942E
:1013E000A7040E9446040E943A048823B1F020E03A
:1013F00030E040E85FE36091DE017091DF018091B1
:10140000E0019091E1010E945B0F6093DE01709317
:10141000DF018093E0019093E1010E94360488236C
:10142000B1F020E030E040E85FE36091DE017091D0
:10143000DF018091E0019091E1010E945A0F6093D9
:10144000DE017093DF018093E0019093E10161E0A0
:1014500080E00E94EE058AE291E00E94A70460917C
:10146000DE017091DF018091E0019091E10141E0A6
:101470000E9403060E943E04882309F4B2CF61E073
:1014800088E00E94EE0583EA91E00E94A7040E9492
:101490004204882309F472CFF092F001E092EF0148
:1014A0006DCF0E94450533E0E32EF12C8091EF01D2
:1014B0009091F001029709F0D3C40E9489020E9422
:1014C000460460E080E00E94EE058DE591E00E9418
:1014D000A70461E080E00E94EE058EE691E00E94A4
:1014E000A704609100017091010180910201909127
:1014F000030141E00E9403060E943E04882309F490
:1015000065C00E9446040E943A048823B1F020E09E
:1015100030E040E85FE3609100017091010180914B
:101520000201909103010E945B0F60930001709390
:10153000010180930201909303010E9436048823E5
:1015400009F14090000150900101609002017090FB
:10155000030120E030E0A901C301B2010E9426117D
:10156000181684F420E030E040E85FE3C301B201E4
:101570000E945A0F60930001709301018093020151
:101580009093030161E088E00E94EE058BE591E015
:101590000E94A70461E084E00E94EE0560910001D2
:1015A00070910101809102019091030141E00E943C
:1015B00003060E943E04882309F4A3CF61E088E07B
:1015C0000E94EE0583EA91E00E94A7040E94420473
:1015D000882309F46BCFF092F001E092EF0166CF1F
:1015E0000E94450524E0E22EF12C8091EF019091BC
:1015F000F001039709F034C40E9489020E94460456
:1016000060E080E00E94EE0583E791E00E94A7047D
:1016100061E080E00E94EE058EE691E00E94A70462
:10162000609104017091050180910601909107017C
:1016300041E00E9403060E943E04882309F465C02D
:101640000E9446040E943A048823B1F020E030E072
:1016500040E85FE36091040170910501809106010B
:10166000909107010E945B0F609304017093050144
:1016700080930601909307010E943604882309F1A4
:1016800040900401509005016090060170900701A0
:1016900020E030E0A901C301B2010E942611181612
:1016A00084F420E030E040E85FE3C301B2010E942F
:1016B0005A0F609304017093050180930601909383
:1016C000070161E088E00E94EE058BE591E00E9451
:1016D000A70461E084E00E94EE056091040170912E
:1016E0000501809106019091070141E00E940306E7
:1016F0000E943E04882309F4A3CF61E088E00E94A1
:10170000EE0583EA91E00E94A7040E944204882328
:1017100009F46BCFF092F001E092EF0166CF0E94E6
:10172000450595E0E92EF12C8091EF019091F001B3
:10173000049709F095C30E9489020E9446046091B3
:10174000080187E00E94DE008091E201882309F40D
:101750006AC00E94F70260E082E00E94EE0584E821
:1017600091E00E94A7048091E20161E0882309F4DE
:101770005DC087E00E94EE058FE391E00E94A70420
:101780000E943E04882309F440C061E08AE00E9480
:10179000EE058BE591E00E94A704DD24D3940E941E
:1017A00046040E943A04882331F08091E2018111BD
:1017B00002C0D092E2010E943604882371F0809129
:1017C000E201882351F01092E2011092EA01109296
:1017D000E9011092EE011092ED018091E20161E0C9
:1017E000882351F187E00E94EE058FE391E00E948B
:1017F000A7040E943E04882391F261E08AE00E94DF
:10180000EE0583EA91E00E94A704D090E2010E94D5
:101810004204DD20B9F0882309F486CFF092F0016C
:10182000E092EF0181CF0E945F0395CF87E00E9495
:10183000EE058BE391E0A2CF87E00E94EE058BE3FB
:1018400091E0D5CF882309F46FCF1093F001009376
:10185000EF016ACF0E94450586E0E82EF12C8091C9
:10186000EF019091F001059709F0FAC20E948902F8
:101870000E94460460E082E00E94EE0584E891E068
:101880000E94A70461E080E00E94EE0580E991E0FB
:101890000E94A7048091E9019091EA0181309105AD
:1018A00009F0DCC061E086E00E94EE058FE391E084
:1018B0000E94A70461E08BE00E94EE058091E301A5
:1018C0009091E4010E94E1068091E3019091E4018E
:1018D00061E08436910509F0B3C08EE00E94EE0508
:1018E00087E991E00E94A7040E943E04882309F43E
:1018F000CAC061E089E00E94EE058BE591E00E949C
:10190000A7040E9446040E943A04882381F0809133
:10191000ED019091EE01892B51F48091E5019091B8
:10192000E601892B21F4D093EA01C093E9010E94DA
:101930003604882341F01092EA011092E9011092D6
:10194000E8011092E7018091E9019091EA0181306C
:10195000910509F0A2C061E086E00E94EE058FE3E8
:1019600091E00E94A7040E943E04882351F28091D6
:10197000E9019091EA01019709F0AFC00E94460485
:101980000E943A04882361F08091E3019091E40180
:10199000843691052CF405969093E4018093E3013D
:1019A0000E943604882361F08091E3019091E40164
:1019B000181619062CF405979093E4018093E3011F
:1019C00061E089E00E94EE0585EA91E00E94A704AB
:1019D00061E08BE00E94EE058091E3019091E401CB
:1019E0000E94E1068091E3019091E40161E0843678
:1019F000910509F064C08EE00E94EE0587E991E050
:101A00000E94A7040E943E04882309F4B7CF61E036
:101A100089E00E94EE0583EA91E00E94A70490E02D
:101A200080E02091E9013091EA01232B49F561E042
:101A300089E00E94EE0583EA91E00E94A70423C09A
:101A40000A9734F08DE00E94EE0589E991E04ACFD3
:101A50008CE00E94EE058CE991E044CF892B09F0DF
:101A600043CF61E086E00E94EE058BE391E00E94A7
:101A7000A70461E08BE00E94EE0580EA91E032CF9E
:101A8000019709F43ECF0E944204882309F4E7CE6F
:101A9000F092F001E092EF01E2CE892B09F063CFE2
:101AA00061E086E00E94EE058BE391E00E94A704CE
:101AB00061E08BE00E94EE0580EA91E052CF0A9748
:101AC00034F08DE00E94EE0589E991E099CF8CE039
:101AD0000E94EE058CE991E093CF81E090E0A1CFE8
:101AE0000E9445058091EF019091F001069709F061
:101AF000B7C10E9489020E94460460E082E00E9411
:101B0000EE0584E891E00E94A70461E080E00E9475
:101B1000EE0587EA91E00E94A7048091ED01909183
:101B2000EE018130910509F0E0C061E085E00E949E
:101B3000EE058FE391E00E94A70461E08AE00E9435
:101B4000EE058091EB019091EC010E94E10661E0CD
:101B50008DE00E94EE058091EB019091EC0161E037
:101B60008436910509F0B3C08DE00E94EE0587E947
:101B700091E00E94A7040E943E04882309F4CAC091
:101B800061E088E00E94EE058BE591E00E94A704E9
:101B90000E9446040E943A04882381F08091E90162
:101BA0009091EA01892B51F48091E7019091E8012D
:101BB000892B21F4D093EE01C093ED010E943604ED
:101BC000882341F01092EE011092ED011092E6018F
:101BD0001092E5018091ED019091EE018130910527
:101BE00009F0A2C061E085E00E94EE058FE391E07C
:101BF0000E94A7040E943E04882351F28091ED01C7
:101C00009091EE01019709F0AFC00E9446040E9436
:101C10003A04882361F08091EB019091EC018436C5
:101C200091052CF405969093EC018093EB010E94B2
:101C30003604882361F08091EB019091EC01181635
:101C400019062CF405969093EC018093EB0161E06A
:101C500088E00E94EE0585EA91E00E94A70461E019
:101C60008AE00E94EE058091EB019091EC010E94C8
:101C7000E1068091EB019091EC0161E084369105E1
:101C800009F064C08DE00E94EE0587E991E00E94B2
:101C9000A7040E943E04882309F4B7CF61E088E0DE
:101CA0000E94EE0583EA91E00E94A70490E080E0A4
:101CB0002091ED013091EE01232B49F561E088E0A0
:101CC0000E94EE0583EA91E00E94A70423C00A97D0
:101CD00034F08CE00E94EE0589E991E04ACF8BE078
:101CE0000E94EE058CE991E044CF892B09F043CFA7
:101CF00061E085E00E94EE058BE391E00E94A7047D
:101D000061E08AE00E94EE0580EA91E032CF01971F
:101D100009F43ECF0E944204882309F4E3CE1093D5
:101D2000F0010093EF01DECE892B09F063CF61E073
:101D300085E00E94EE058BE391E00E94A70461E03C
:101D40008AE00E94EE0580EA91E052CF0A9734F0D3
:101D50008CE00E94EE0589E991E099CF8BE00E942A
:101D6000EE058CE991E093CF81E090E0A1CF0E9455
:101D700045058091EF019091F001079709F070C03F
:101D80000E94460460E082E00E94EE058DEA91E048
:101D90000E94A7048091080190910901813091056A
:101DA00009F04BC061E084E00E94EE058BEB91E00E
:101DB0000E94A7040E943E048823A9F10E944604C1
:101DC0000E943A04882321F0B0920901A0920801F0
:101DD0000E943604882321F0109209011092080114
:101DE00061E08CE00E94EE058BE591E00E94A70483
:101DF00080910801909109018130910541F561E0E0
:101E000084E00E94EE058BEB91E00E94A7040E9403
:101E10003E04882399F261E08CE00E94EE0583EA9B
:101E200091E00E94A7040E944204882309F4A1CFF4
:101E30001092F0011092EF019CCF892B09F0BACFDC
:101E400061E084E00E94EE0584EC91E0B1CF892B43
:101E5000F1F661E084E00E94EE0584EC91E0D5CFDC
:101E600080E090E0892B09F426C90E94000021C976
:101E7000A1E21A2EAA1BBB1BFD010DC0AA1FBB1F8E
:101E8000EE1FFF1FA217B307E407F50720F0A21B00
:101E9000B30BE40BF50B661F771F881F991F1A946D
:101EA00069F760957095809590959B01AC01BD0197
:101EB000CF0108955058BB27AA270E94720F0C9497
:101EC000EC100E94DE1038F00E94E51020F039F48A
:101ED0009F3F19F426F40C94DB100EF4E095E7FB19
:101EE0000C94D510E92F0E94FD1058F3BA17620721
:101EF00073078407950720F079F4A6F50C941F1159
:101F00000EF4E0950B2EBA2FA02D0B01B901900114
:101F10000C01CA01A0011124FF27591B99F0593F58
:101F200050F4503E68F11A16F040A22F232F342FA0
:101F30004427585FF3CF469537952795A795F040EE
:101F40005395C9F77EF41F16BA0B620B730B840B03
:101F5000BAF09150A1F0FF0FBB1F661F771F881FBB
:101F6000C2F70EC0BA0F621F731F841F48F4879513
:101F700077956795B795F7959E3F08F0B0CF939505
:101F8000880F08F09927EE0F9795879508950E947E
:101F9000B11008F481E008950E94E00F0C94EC1059
:101FA0000E94E51058F00E94DE1040F029F45F3FD7
:101FB00029F00C94D51051110C9420110C94DB10C5
:101FC0000E94FD1068F39923B1F3552391F3951BFB
:101FD000550BBB27AA2762177307840738F09F5F4A
:101FE0005F4F220F331F441FAA1FA9F335D00E2EB7
:101FF0003AF0E0E832D091505040E695001CCAF724
:102000002BD0FE2F29D0660F771F881FBB1F2617E6
:1020100037074807AB07B0E809F0BB0B802DBF01BD
:10202000FF2793585F4F3AF09E3F510578F00C948C
:10203000D5100C9420115F3FE4F3983ED4F38695BD
:1020400077956795B795F7959F5FC9F7880F911DAD
:102050009695879597F90895E1E0660F771F881F99
:10206000BB1F621773078407BA0720F0621B730B4C
:10207000840BBA0BEE1F88F7E09508950E94451077
:102080006894B1110C94201108950E94051188F0F4
:102090009F5798F0B92F9927B751B0F0E1F0660F2C
:1020A000771F881F991F1AF0BA95C9F714C0B1306D
:1020B00091F00E941F11B1E008950C941F11672F39
:1020C000782F8827B85F39F0B93FCCF3869577959C
:1020D0006795B395D9F73EF4909580957095619585
:1020E0007F4F8F4F9F4F0895E89409C097FB3EF4B0
:1020F00090958095709561957F4F8F4F9F4F992355
:10210000A9F0F92F96E9BB279395F69587957795D2
:102110006795B795F111F8CFFAF4BB0F11F460FF92
:102120001BC06F5F7F4F8F4F9F4F16C0882311F0EA
:1021300096E911C0772321F09EE8872F762F05C0FE
:10214000662371F096E8862F70E060E02AF09A9599
:10215000660F771F881FDAF7880F9695879597F98E
:102160000895990F0008550FAA0BE0E8FEEF161628
:102170001706E807F907C0F012161306E407F5077B
:1021800098F0621B730B840B950B39F40A2661F0EF
:10219000232B242B252B21F408950A2609F4A14092
:1021A000A6958FEF811D811D089597F99F6780E89F
:1021B00070E060E008959FEF80EC089500240A9499
:1021C0001616170618060906089500240A94121612
:1021D0001306140605060895092E0394000C11F445
:1021E000882352F0BB0F40F4BF2B11F460FF04C0F2
:1021F0006F5F7F4F8F4F9F4F089557FD9058440F4B
:10220000551F59F05F3F71F04795880F97FB991F55
:1022100061F09F3F79F08795089512161306140612
:10222000551FF2CF4695F1DF08C01616170618069F
:10223000991FF1CF86957105610508940895E8947A
:10224000BB2766277727CB0197F908950E94B11025
:1022500008F48FEF08950E943E110C94EC100E9438
:10226000DE1038F00E94E51020F0952311F00C9458
:10227000D5100C94DB1011240C9420110E94FD1039
:1022800070F3959FC1F3950F50E0551F629FF001C9
:10229000729FBB27F00DB11D639FAA27F00DB11DE2
:1022A000AA1F649F6627B00DA11D661F829F22276B
:1022B000B00DA11D621F739FB00DA11D621F839FF2
:1022C000A00D611D221F749F3327A00D611D231FC8
:1022D000849F600D211D822F762F6A2F11249F5716
:1022E00050409AF0F1F088234AF0EE0FFF1FBB1F19
:1022F000661F771F881F91505040A9F79E3F5105D8
:1023000080F00C94D5100C9420115F3FE4F3983EBC
:10231000D4F3869577956795B795F795E7959F5F81
:10232000C1F7FE2B880F911D9695879597F9089513
:102330000E94B110880B990B089597FB072E16F495
:10234000009407D077FD09D00E94C01107FC05D08A
:102350003EF4909581959F4F0895709561957F4FBC
:102360000895EE0FFF1F0590F491E02D09942A19AE
:102370003B094C095D096E097F09800B910B08959B
:10238000AA1BBB1B51E107C0AA1FBB1FA617B7079B
:1023900010F0A61BB70B881F991F5A95A9F78095B7
:0C23A0009095BC01CD010895F894FFCF8A
:1023AC000000803F0000803F010000000000FD05A0
:1023BC00D601860285020000000011020D026E613A
:1023CC006E00696E66006F76660053503A200050BE
:1023DC00563A2000447269766572004F4646004FAB
:1023EC004E2000486561740046616E20004E657792
:1023FC002053657420506F696E74003C004E6577F5
:10240C002050726F702E204761696E2048004B700F
:10241C003A20004E65772050726F702E204761690C
:10242C006E2046004D616E75616C204D6F646500C9
:10243C00486561743A2000250025200025202000E5
:10244C0020202020003E0046616E3A200044726934
:10245C007665722053746174757300456E61626C9D
:0E246C006564200044697361626C6564000061
:00000001FF
